:100000000C9434000C943E000C943E000C943E0082
:100010000C943E000C943E000C943E000C943E0068
:100020000C943E000C943E000C943E000C943E0058
:100030000C943E000C943E000C943E000C943E0048
:100040000C943E000C943E000C943E000C943E0038
:100050000C943E000C943E000C943E000C943E0028
:100060000C943E000C943E0011241FBECFEFD8E04C
:10007000DEBFCDBF0E9440000C945A000C940000DB
:10008000219A85B195B18260892B85B92FEF83EDD7
:1000900090E3215080409040E1F700C00000299893
:1000A0002FEF83ED90E3215080409040E1F700C0B6
:0800B0000000E7CFF894FFCF38
:00000001FF
