:100000000C9434000C9449000C9449000C94490061
:100010000C9449000C9449000C9449000C9449003C
:100020000C9449000C9449000C9449000C9449002C
:100030000C9449000C9449000C9449000C9449001C
:100040000C9449000C9449000C9449000C9449000C
:100050000C9449000C9449000C9449000C944900FC
:100060000C9449000C94490011241FBECFEFD8E036
:10007000DEBFCDBF11E0A0E0B1E0E2E7F2E002C0F8
:1000800005900D92AC34B107D9F70E94B0000C94E2
:1000900037010C940000209A5098589A5198599A18
:1000A000089599B189B1917021E0921741F0869538
:1000B0008170821721F05E9A81E090E008955E9849
:1000C00080E090E00895ECE7F0E080818064808338
:1000D00087E880937A00089590917C00987F9093B0
:1000E0007C0090917C008770982B90937C0080918D
:1000F0007A00806480937A0080917A0084FFFCCF3C
:1001000080917A00806180937A008091780090914C
:100110007900089584B5836884BD85B5836085BD05
:10012000569A08958093C4009093C50086E4809306
:10013000C20088ED8093C10008959091C00095FFA2
:10014000FCCF8093C6000895CF93DF93EC01899193
:10015000882319F00E949D00FACFDF91CF91089576
:10016000CF93DF93CDB7DEB7CC54D1090FB6F89457
:10017000DEBF0FBECDBF0E944B000E9463000E94F5
:100180008A0087E690E00E94920083E1E0E0F1E0DF
:10019000DE01DA9601900D928A95E1F783E1E3E1C1
:1001A000F1E0DE01979601900D928A95E1F783E1E7
:1001B000E6E2F1E0DE01549601900D928A95E1F7B6
:1001C00083E1E9E3F1E0DE01119601900D928A9559
:1001D000E1F70E945100892BE1F3E12CF12C83EF30
:1001E000D82E93EBC92E26E6B22E33E3A32E80E061
:1001F0000E946C008C01E816F90611F47801F7CF23
:10020000893C910568F4A7BCCE01CA960E94A4005F
:100210002FEF83EC99E0215080409040E1F724C01B
:10022000853F914068F4B7BCCE0187960E94A40038
:100230008FEF93EC29E0815090402040E1F714C00B
:100240000D3B82E0180720F4C7BCCE01449603C0E2
:10025000D7BCCE0101960E94A4009FEF23EC89E059
:10026000915020408040E1F700C00000C7CFF894D3
:02027000FFCFBE
:1002720054656D70657261747572653A3230C2B0E0
:10028200430A0054656D70657261747572653A3225
:1002920035C2B0430A0054656D706572617475723F
:1002A200653A3239C2B0430A0054656D70657261B5
:0C02B200747572653A3333C2B0430A0021
:00000001FF
